{
  "_format": "hh-sol-artifact-1",
  "contractName": "SkinPassport",
  "sourceName": "contracts/SkinPassport.sol",
  "abi": [
    {
      "inputs": [],
      "stateMutability": "nonpayable",
      "type": "constructor"
    },
    {
      "inputs": [
        {
          "internalType": "address",
          "name": "sender",
          "type": "address"
        },
        {
          "internalType": "uint256",
          "name": "tokenId",
          "type": "uint256"
        },
        {
          "internalType": "address",
          "name": "owner",
          "type": "address"
        }
      ],
      "name": "ERC721IncorrectOwner",
      "type": "error"
    },
    {
      "inputs": [
        {
          "internalType": "address",
          "name": "operator",
          "type": "address"
        },
        {
          "internalType": "uint256",
          "name": "tokenId",
          "type": "uint256"
        }
      ],
      "name": "ERC721InsufficientApproval",
      "type": "error"
    },
    {
      "inputs": [
        {
          "internalType": "address",
          "name": "approver",
          "type": "address"
        }
      ],
      "name": "ERC721InvalidApprover",
      "type": "error"
    },
    {
      "inputs": [
        {
          "internalType": "address",
          "name": "operator",
          "type": "address"
        }
      ],
      "name": "ERC721InvalidOperator",
      "type": "error"
    },
    {
      "inputs": [
        {
          "internalType": "address",
          "name": "owner",
          "type": "address"
        }
      ],
      "name": "ERC721InvalidOwner",
      "type": "error"
    },
    {
      "inputs": [
        {
          "internalType": "address",
          "name": "receiver",
          "type": "address"
        }
      ],
      "name": "ERC721InvalidReceiver",
      "type": "error"
    },
    {
      "inputs": [
        {
          "internalType": "address",
          "name": "sender",
          "type": "address"
        }
      ],
      "name": "ERC721InvalidSender",
      "type": "error"
    },
    {
      "inputs": [
        {
          "internalType": "uint256",
          "name": "tokenId",
          "type": "uint256"
        }
      ],
      "name": "ERC721NonexistentToken",
      "type": "error"
    },
    {
      "inputs": [
        {
          "internalType": "address",
          "name": "owner",
          "type": "address"
        }
      ],
      "name": "OwnableInvalidOwner",
      "type": "error"
    },
    {
      "inputs": [
        {
          "internalType": "address",
          "name": "account",
          "type": "address"
        }
      ],
      "name": "OwnableUnauthorizedAccount",
      "type": "error"
    },
    {
      "anonymous": false,
      "inputs": [
        {
          "indexed": true,
          "internalType": "address",
          "name": "owner",
          "type": "address"
        },
        {
          "indexed": true,
          "internalType": "address",
          "name": "approved",
          "type": "address"
        },
        {
          "indexed": true,
          "internalType": "uint256",
          "name": "tokenId",
          "type": "uint256"
        }
      ],
      "name": "Approval",
      "type": "event"
    },
    {
      "anonymous": false,
      "inputs": [
        {
          "indexed": true,
          "internalType": "address",
          "name": "owner",
          "type": "address"
        },
        {
          "indexed": true,
          "internalType": "address",
          "name": "operator",
          "type": "address"
        },
        {
          "indexed": false,
          "internalType": "bool",
          "name": "approved",
          "type": "bool"
        }
      ],
      "name": "ApprovalForAll",
      "type": "event"
    },
    {
      "anonymous": false,
      "inputs": [
        {
          "indexed": true,
          "internalType": "address",
          "name": "operator",
          "type": "address"
        },
        {
          "indexed": false,
          "internalType": "bool",
          "name": "authorized",
          "type": "bool"
        }
      ],
      "name": "OperatorSet",
      "type": "event"
    },
    {
      "anonymous": false,
      "inputs": [
        {
          "indexed": true,
          "internalType": "address",
          "name": "previousOwner",
          "type": "address"
        },
        {
          "indexed": true,
          "internalType": "address",
          "name": "newOwner",
          "type": "address"
        }
      ],
      "name": "OwnershipTransferred",
      "type": "event"
    },
    {
      "anonymous": false,
      "inputs": [
        {
          "indexed": true,
          "internalType": "address",
          "name": "client",
          "type": "address"
        },
        {
          "indexed": true,
          "internalType": "uint256",
          "name": "tokenId",
          "type": "uint256"
        },
        {
          "indexed": false,
          "internalType": "string",
          "name": "skinType",
          "type": "string"
        }
      ],
      "name": "PassportMinted",
      "type": "event"
    },
    {
      "anonymous": false,
      "inputs": [
        {
          "indexed": true,
          "internalType": "uint256",
          "name": "tokenId",
          "type": "uint256"
        },
        {
          "indexed": false,
          "internalType": "string",
          "name": "metadataURI",
          "type": "string"
        }
      ],
      "name": "PassportUpdated",
      "type": "event"
    },
    {
      "anonymous": false,
      "inputs": [
        {
          "indexed": true,
          "internalType": "address",
          "name": "from",
          "type": "address"
        },
        {
          "indexed": true,
          "internalType": "address",
          "name": "to",
          "type": "address"
        },
        {
          "indexed": true,
          "internalType": "uint256",
          "name": "tokenId",
          "type": "uint256"
        }
      ],
      "name": "Transfer",
      "type": "event"
    },
    {
      "inputs": [
        {
          "internalType": "address",
          "name": "",
          "type": "address"
        },
        {
          "internalType": "uint256",
          "name": "",
          "type": "uint256"
        }
      ],
      "name": "approve",
      "outputs": [],
      "stateMutability": "pure",
      "type": "function"
    },
    {
      "inputs": [
        {
          "internalType": "address",
          "name": "",
          "type": "address"
        }
      ],
      "name": "authorizedOperators",
      "outputs": [
        {
          "internalType": "bool",
          "name": "",
          "type": "bool"
        }
      ],
      "stateMutability": "view",
      "type": "function"
    },
    {
      "inputs": [
        {
          "internalType": "address",
          "name": "owner",
          "type": "address"
        }
      ],
      "name": "balanceOf",
      "outputs": [
        {
          "internalType": "uint256",
          "name": "",
          "type": "uint256"
        }
      ],
      "stateMutability": "view",
      "type": "function"
    },
    {
      "inputs": [
        {
          "internalType": "uint256",
          "name": "tokenId",
          "type": "uint256"
        }
      ],
      "name": "getApproved",
      "outputs": [
        {
          "internalType": "address",
          "name": "",
          "type": "address"
        }
      ],
      "stateMutability": "view",
      "type": "function"
    },
    {
      "inputs": [
        {
          "internalType": "address",
          "name": "owner",
          "type": "address"
        },
        {
          "internalType": "address",
          "name": "operator",
          "type": "address"
        }
      ],
      "name": "isApprovedForAll",
      "outputs": [
        {
          "internalType": "bool",
          "name": "",
          "type": "bool"
        }
      ],
      "stateMutability": "view",
      "type": "function"
    },
    {
      "inputs": [
        {
          "internalType": "address",
          "name": "client",
          "type": "address"
        },
        {
          "internalType": "string",
          "name": "skinType",
          "type": "string"
        },
        {
          "internalType": "string",
          "name": "metadataURI",
          "type": "string"
        }
      ],
      "name": "mintPassport",
      "outputs": [
        {
          "internalType": "uint256",
          "name": "",
          "type": "uint256"
        }
      ],
      "stateMutability": "nonpayable",
      "type": "function"
    },
    {
      "inputs": [],
      "name": "name",
      "outputs": [
        {
          "internalType": "string",
          "name": "",
          "type": "string"
        }
      ],
      "stateMutability": "view",
      "type": "function"
    },
    {
      "inputs": [],
      "name": "owner",
      "outputs": [
        {
          "internalType": "address",
          "name": "",
          "type": "address"
        }
      ],
      "stateMutability": "view",
      "type": "function"
    },
    {
      "inputs": [
        {
          "internalType": "uint256",
          "name": "tokenId",
          "type": "uint256"
        }
      ],
      "name": "ownerOf",
      "outputs": [
        {
          "internalType": "address",
          "name": "",
          "type": "address"
        }
      ],
      "stateMutability": "view",
      "type": "function"
    },
    {
      "inputs": [
        {
          "internalType": "address",
          "name": "",
          "type": "address"
        }
      ],
      "name": "passportOf",
      "outputs": [
        {
          "internalType": "uint256",
          "name": "",
          "type": "uint256"
        }
      ],
      "stateMutability": "view",
      "type": "function"
    },
    {
      "inputs": [
        {
          "internalType": "uint256",
          "name": "",
          "type": "uint256"
        }
      ],
      "name": "passports",
      "outputs": [
        {
          "internalType": "string",
          "name": "skinType",
          "type": "string"
        },
        {
          "internalType": "string",
          "name": "metadataURI",
          "type": "string"
        },
        {
          "internalType": "uint256",
          "name": "lastUpdated",
          "type": "uint256"
        }
      ],
      "stateMutability": "view",
      "type": "function"
    },
    {
      "inputs": [],
      "name": "renounceOwnership",
      "outputs": [],
      "stateMutability": "nonpayable",
      "type": "function"
    },
    {
      "inputs": [
        {
          "internalType": "address",
          "name": "from",
          "type": "address"
        },
        {
          "internalType": "address",
          "name": "to",
          "type": "address"
        },
        {
          "internalType": "uint256",
          "name": "tokenId",
          "type": "uint256"
        }
      ],
      "name": "safeTransferFrom",
      "outputs": [],
      "stateMutability": "nonpayable",
      "type": "function"
    },
    {
      "inputs": [
        {
          "internalType": "address",
          "name": "from",
          "type": "address"
        },
        {
          "internalType": "address",
          "name": "to",
          "type": "address"
        },
        {
          "internalType": "uint256",
          "name": "tokenId",
          "type": "uint256"
        },
        {
          "internalType": "bytes",
          "name": "data",
          "type": "bytes"
        }
      ],
      "name": "safeTransferFrom",
      "outputs": [],
      "stateMutability": "nonpayable",
      "type": "function"
    },
    {
      "inputs": [
        {
          "internalType": "address",
          "name": "",
          "type": "address"
        },
        {
          "internalType": "bool",
          "name": "",
          "type": "bool"
        }
      ],
      "name": "setApprovalForAll",
      "outputs": [],
      "stateMutability": "pure",
      "type": "function"
    },
    {
      "inputs": [
        {
          "internalType": "address",
          "name": "operator",
          "type": "address"
        },
        {
          "internalType": "bool",
          "name": "authorized",
          "type": "bool"
        }
      ],
      "name": "setOperator",
      "outputs": [],
      "stateMutability": "nonpayable",
      "type": "function"
    },
    {
      "inputs": [
        {
          "internalType": "bytes4",
          "name": "interfaceId",
          "type": "bytes4"
        }
      ],
      "name": "supportsInterface",
      "outputs": [
        {
          "internalType": "bool",
          "name": "",
          "type": "bool"
        }
      ],
      "stateMutability": "view",
      "type": "function"
    },
    {
      "inputs": [],
      "name": "symbol",
      "outputs": [
        {
          "internalType": "string",
          "name": "",
          "type": "string"
        }
      ],
      "stateMutability": "view",
      "type": "function"
    },
    {
      "inputs": [
        {
          "internalType": "uint256",
          "name": "tokenId",
          "type": "uint256"
        }
      ],
      "name": "tokenURI",
      "outputs": [
        {
          "internalType": "string",
          "name": "",
          "type": "string"
        }
      ],
      "stateMutability": "view",
      "type": "function"
    },
    {
      "inputs": [
        {
          "internalType": "address",
          "name": "from",
          "type": "address"
        },
        {
          "internalType": "address",
          "name": "to",
          "type": "address"
        },
        {
          "internalType": "uint256",
          "name": "tokenId",
          "type": "uint256"
        }
      ],
      "name": "transferFrom",
      "outputs": [],
      "stateMutability": "nonpayable",
      "type": "function"
    },
    {
      "inputs": [
        {
          "internalType": "address",
          "name": "newOwner",
          "type": "address"
        }
      ],
      "name": "transferOwnership",
      "outputs": [],
      "stateMutability": "nonpayable",
      "type": "function"
    },
    {
      "inputs": [
        {
          "internalType": "uint256",
          "name": "tokenId",
          "type": "uint256"
        },
        {
          "internalType": "string",
          "name": "newMetadataURI",
          "type": "string"
        }
      ],
      "name": "updatePassport",
      "outputs": [],
      "stateMutability": "nonpayable",
      "type": "function"
    }
  ],
  "bytecode": "0x608060405234801562000010575f80fd5b50336040518060400160405280601681526020017f486169726c65737320536b696e2050617373706f727400000000000000000000815250604051806040016040528060058152602001642429a5a4a760d91b815250815f9081620000769190620001d0565b506001620000858282620001d0565b5050506001600160a01b038116620000b657604051631e4fbdf760e01b81525f600482015260240160405180910390fd5b620000c181620000e1565b50335f908152600a60205260409020805460ff191660011790556200029c565b600680546001600160a01b038381166001600160a01b0319831681179093556040519116919082907f8be0079c531659141344cd1fd0a4f28419497f9722a3daafe3b4186f6b6457e0905f90a35050565b634e487b7160e01b5f52604160045260245ffd5b600181811c908216806200015b57607f821691505b6020821081036200017a57634e487b7160e01b5f52602260045260245ffd5b50919050565b601f821115620001cb57805f5260205f20601f840160051c81016020851015620001a75750805b601f840160051c820191505b81811015620001c8575f8155600101620001b3565b50505b505050565b81516001600160401b03811115620001ec57620001ec62000132565b6200020481620001fd845462000146565b8462000180565b602080601f8311600181146200023a575f8415620002225750858301515b5f19600386901b1c1916600185901b17855562000294565b5f85815260208120601f198616915b828110156200026a5788860151825594840194600190910190840162000249565b50858210156200028857878501515f19600388901b60f8161c191681555b505060018460011b0185555b505050505050565b61186d80620002aa5f395ff3fe608060405234801561000f575f80fd5b506004361061013d575f3560e01c8063715018a6116100b4578063a22cb46511610079578063a22cb465146102b3578063b88d4fde146102c1578063c87b56dd146102d4578063cb22f5fd146102e7578063e985e9c514610309578063f2fde38b1461031c575f80fd5b8063715018a61461026c5780637994cdf2146102745780638da5cb5b1461028757806395d89b411461029857806398463d15146102a0575f80fd5b806323b872dd1161010557806323b872dd146101e057806342842e0e146101f3578063558a7297146102065780635d1c2634146102195780636352211e1461024657806370a0823114610259575f80fd5b806301ffc9a71461014157806306fdde0314610169578063081812fc1461017e578063095ea7b3146101a9578063181d989b146101be575b5f80fd5b61015461014f3660046111e9565b61032f565b60405190151581526020015b60405180910390f35b610171610380565b604051610160919061124e565b61019161018c366004611260565b61040f565b6040516001600160a01b039091168152602001610160565b6101bc6101b7366004611292565b610436565b005b6101546101cc3660046112ba565b600a6020525f908152604090205460ff1681565b6101bc6101ee3660046112d3565b61049a565b6101bc6102013660046112d3565b610523565b6101bc61021436600461130c565b610542565b6102386102273660046112ba565b60096020525f908152604090205481565b604051908152602001610160565b610191610254366004611260565b6105a8565b6102386102673660046112ba565b6105b2565b6101bc6105f7565b6101bc61028236600461138a565b61060a565b6006546001600160a01b0316610191565b61017161073c565b6102386102ae3660046113d2565b61074b565b6101bc6101b736600461130c565b6101bc6102cf366004611461565b610952565b6101716102e2366004611260565b61096a565b6102fa6102f5366004611260565b610a68565b60405161016093929190611536565b61015461031736600461156b565b610b95565b6101bc61032a3660046112ba565b610bc2565b5f6001600160e01b031982166380ac58cd60e01b148061035f57506001600160e01b03198216635b5e139f60e01b145b8061037a57506301ffc9a760e01b6001600160e01b03198316145b92915050565b60605f805461038e9061159c565b80601f01602080910402602001604051908101604052809291908181526020018280546103ba9061159c565b80156104055780601f106103dc57610100808354040283529160200191610405565b820191905f5260205f20905b8154815290600101906020018083116103e857829003601f168201915b5050505050905090565b5f61041982610bff565b505f828152600460205260409020546001600160a01b031661037a565b60405162461bcd60e51b815260206004820152602e60248201527f536b696e2050617373706f727420697320736f756c626f756e643a206170707260448201526d1bdd985b1cc8191a5cd8589b195960921b60648201526084015b60405180910390fd5b6001600160a01b0382166104c357604051633250574960e11b81525f6004820152602401610491565b5f6104cf838333610c37565b9050836001600160a01b0316816001600160a01b03161461051d576040516364283d7b60e01b81526001600160a01b0380861660048301526024820184905282166044820152606401610491565b50505050565b61053d83838360405180602001604052805f815250610952565b505050565b61054a610cdb565b6001600160a01b0382165f818152600a6020908152604091829020805460ff191685151590811790915591519182527f1a594081ae893ab78e67d9b9e843547318164322d32c65369d78a96172d9dc8f910160405180910390a25050565b5f61037a82610bff565b5f6001600160a01b0382166105dc576040516322718ad960e21b81525f6004820152602401610491565b506001600160a01b03165f9081526003602052604090205490565b6105ff610cdb565b6106085f610d08565b565b335f908152600a602052604090205460ff168061063157506006546001600160a01b031633145b61066e5760405162461bcd60e51b815260206004820152600e60248201526d139bdd08185d5d1a1bdc9a5e995960921b6044820152606401610491565b5f838152600260205260409020546001600160a01b03166106cb5760405162461bcd60e51b815260206004820152601760248201527614185cdcdc1bdc9d08191bd95cc81b9bdd08195e1a5cdd604a1b6044820152606401610491565b5f8381526008602052604090206001016106e6828483611618565b505f8381526008602052604090819020426002909101555183907fd1eff831ab7c9a2f08b5050a7f516d13974bebd5d8810b81566969ce1651dfb89061072f90859085906116d2565b60405180910390a2505050565b60606001805461038e9061159c565b335f908152600a602052604081205460ff168061077257506006546001600160a01b031633145b6107af5760405162461bcd60e51b815260206004820152600e60248201526d139bdd08185d5d1a1bdc9a5e995960921b6044820152606401610491565b6001600160a01b0386165f90815260096020526040902054156108145760405162461bcd60e51b815260206004820152601d60248201527f436c69656e7420616c72656164792068617320612070617373706f72740000006044820152606401610491565b5f60075f815461082390611700565b918290555090506108348782610d59565b604051806060016040528087878080601f0160208091040260200160405190810160405280939291908181526020018383808284375f92019190915250505090825250604080516020601f8801819004810282018101909252868152918101919087908790819084018382808284375f92018290525093855250504260209384015250838152600890915260409020815181906108d19082611724565b50602082015160018201906108e69082611724565b506040918201516002909101556001600160a01b0388165f818152600960205282902083905590518291907fc4a60be318ddd532f5b2affb52c993feb15f74f1b41db26f2d56afc8408e16f890610940908a908a906116d2565b60405180910390a39695505050505050565b61095d84848461049a565b61051d3385858585610d76565b5f818152600260205260409020546060906001600160a01b03166109ca5760405162461bcd60e51b815260206004820152601760248201527614185cdcdc1bdc9d08191bd95cc81b9bdd08195e1a5cdd604a1b6044820152606401610491565b5f82815260086020526040902060010180546109e59061159c565b80601f0160208091040260200160405190810160405280929190818152602001828054610a119061159c565b8015610a5c5780601f10610a3357610100808354040283529160200191610a5c565b820191905f5260205f20905b815481529060010190602001808311610a3f57829003601f168201915b50505050509050919050565b60086020525f9081526040902080548190610a829061159c565b80601f0160208091040260200160405190810160405280929190818152602001828054610aae9061159c565b8015610af95780601f10610ad057610100808354040283529160200191610af9565b820191905f5260205f20905b815481529060010190602001808311610adc57829003601f168201915b505050505090806001018054610b0e9061159c565b80601f0160208091040260200160405190810160405280929190818152602001828054610b3a9061159c565b8015610b855780601f10610b5c57610100808354040283529160200191610b85565b820191905f5260205f20905b815481529060010190602001808311610b6857829003601f168201915b5050505050908060020154905083565b6001600160a01b039182165f90815260056020908152604080832093909416825291909152205460ff1690565b610bca610cdb565b6001600160a01b038116610bf357604051631e4fbdf760e01b81525f6004820152602401610491565b610bfc81610d08565b50565b5f818152600260205260408120546001600160a01b03168061037a57604051637e27328960e01b815260048101849052602401610491565b5f828152600260205260408120546001600160a01b03168015801590610c6557506001600160a01b03851615155b15610cc75760405162461bcd60e51b815260206004820152602c60248201527f536b696e2050617373706f727420697320736f756c626f756e643a206e6f6e2d60448201526b7472616e7366657261626c6560a01b6064820152608401610491565b610cd2858585610e9e565b95945050505050565b6006546001600160a01b031633146106085760405163118cdaa760e01b8152336004820152602401610491565b600680546001600160a01b038381166001600160a01b0319831681179093556040519116919082907f8be0079c531659141344cd1fd0a4f28419497f9722a3daafe3b4186f6b6457e0905f90a35050565b610d72828260405180602001604052805f815250610f90565b5050565b6001600160a01b0383163b15610e9757604051630a85bd0160e11b81526001600160a01b0384169063150b7a0290610db89088908890879087906004016117e0565b6020604051808303815f875af1925050508015610df2575060408051601f3d908101601f19168201909252610def9181019061181c565b60015b610e59573d808015610e1f576040519150601f19603f3d011682016040523d82523d5f602084013e610e24565b606091505b5080515f03610e5157604051633250574960e11b81526001600160a01b0385166004820152602401610491565b805160208201fd5b6001600160e01b03198116630a85bd0160e11b14610e9557604051633250574960e11b81526001600160a01b0385166004820152602401610491565b505b5050505050565b5f828152600260205260408120546001600160a01b0390811690831615610eca57610eca818486610fa7565b6001600160a01b03811615610f0457610ee55f855f8061100b565b6001600160a01b0381165f90815260036020526040902080545f190190555b6001600160a01b03851615610f32576001600160a01b0385165f908152600360205260409020805460010190555b5f8481526002602052604080822080546001600160a01b0319166001600160a01b0389811691821790925591518793918516917fddf252ad1be2c89b69c2b068fc378daa952ba7f163c4a11628f55a4df523b3ef91a4949350505050565b610f9a838361110f565b61053d335f858585610d76565b610fb2838383611170565b61053d576001600160a01b038316610fe057604051637e27328960e01b815260048101829052602401610491565b60405163177e802f60e01b81526001600160a01b038316600482015260248101829052604401610491565b808061101f57506001600160a01b03821615155b156110e0575f61102e84610bff565b90506001600160a01b0383161580159061105a5750826001600160a01b0316816001600160a01b031614155b801561106d575061106b8184610b95565b155b156110965760405163a9fbf51f60e01b81526001600160a01b0384166004820152602401610491565b81156110de5783856001600160a01b0316826001600160a01b03167f8c5be1e5ebec7d5bd14f71427d1e84f3dd0314c0f7b2291e5b200ac8c7c3b92560405160405180910390a45b505b50505f90815260046020526040902080546001600160a01b0319166001600160a01b0392909216919091179055565b6001600160a01b03821661113857604051633250574960e11b81525f6004820152602401610491565b5f61114483835f610c37565b90506001600160a01b0381161561053d576040516339e3563760e11b81525f6004820152602401610491565b5f6001600160a01b038316158015906111cc5750826001600160a01b0316846001600160a01b031614806111a957506111a98484610b95565b806111cc57505f828152600460205260409020546001600160a01b038481169116145b949350505050565b6001600160e01b031981168114610bfc575f80fd5b5f602082840312156111f9575f80fd5b8135611204816111d4565b9392505050565b5f81518084525f5b8181101561122f57602081850181015186830182015201611213565b505f602082860101526020601f19601f83011685010191505092915050565b602081525f611204602083018461120b565b5f60208284031215611270575f80fd5b5035919050565b80356001600160a01b038116811461128d575f80fd5b919050565b5f80604083850312156112a3575f80fd5b6112ac83611277565b946020939093013593505050565b5f602082840312156112ca575f80fd5b61120482611277565b5f805f606084860312156112e5575f80fd5b6112ee84611277565b92506112fc60208501611277565b9150604084013590509250925092565b5f806040838503121561131d575f80fd5b61132683611277565b91506020830135801515811461133a575f80fd5b809150509250929050565b5f8083601f840112611355575f80fd5b50813567ffffffffffffffff81111561136c575f80fd5b602083019150836020828501011115611383575f80fd5b9250929050565b5f805f6040848603121561139c575f80fd5b83359250602084013567ffffffffffffffff8111156113b9575f80fd5b6113c586828701611345565b9497909650939450505050565b5f805f805f606086880312156113e6575f80fd5b6113ef86611277565b9450602086013567ffffffffffffffff8082111561140b575f80fd5b61141789838a01611345565b9096509450604088013591508082111561142f575f80fd5b5061143c88828901611345565b969995985093965092949392505050565b634e487b7160e01b5f52604160045260245ffd5b5f805f8060808587031215611474575f80fd5b61147d85611277565b935061148b60208601611277565b925060408501359150606085013567ffffffffffffffff808211156114ae575f80fd5b818701915087601f8301126114c1575f80fd5b8135818111156114d3576114d361144d565b604051601f8201601f19908116603f011681019083821181831017156114fb576114fb61144d565b816040528281528a6020848701011115611513575f80fd5b826020860160208301375f60208483010152809550505050505092959194509250565b606081525f611548606083018661120b565b828103602084015261155a818661120b565b915050826040830152949350505050565b5f806040838503121561157c575f80fd5b61158583611277565b915061159360208401611277565b90509250929050565b600181811c908216806115b057607f821691505b6020821081036115ce57634e487b7160e01b5f52602260045260245ffd5b50919050565b601f82111561053d57805f5260205f20601f840160051c810160208510156115f95750805b601f840160051c820191505b81811015610e97575f8155600101611605565b67ffffffffffffffff8311156116305761163061144d565b6116448361163e835461159c565b836115d4565b5f601f841160018114611675575f851561165e5750838201355b5f19600387901b1c1916600186901b178355610e97565b5f83815260208120601f198716915b828110156116a45786850135825560209485019460019092019101611684565b50868210156116c0575f1960f88860031b161c19848701351681555b505060018560011b0183555050505050565b60208152816020820152818360408301375f818301604090810191909152601f909201601f19160101919050565b5f6001820161171d57634e487b7160e01b5f52601160045260245ffd5b5060010190565b815167ffffffffffffffff81111561173e5761173e61144d565b6117528161174c845461159c565b846115d4565b602080601f831160018114611785575f841561176e5750858301515b5f19600386901b1c1916600185901b178555610e95565b5f85815260208120601f198616915b828110156117b357888601518255948401946001909101908401611794565b50858210156117d057878501515f19600388901b60f8161c191681555b5050505050600190811b01905550565b6001600160a01b03858116825284166020820152604081018390526080606082018190525f906118129083018461120b565b9695505050505050565b5f6020828403121561182c575f80fd5b8151611204816111d456fea264697066735822122035fc549498ccb885ada4355ea1765be952f641f9b7d21c1e2e349780211df04364736f6c63430008180033",
  "linkReferences": {},
  "deployedLinkReferences": {}
}